:040000000128FE2FA6
:1009420020001F150800240094012430950097010F
:1009520008000A25B124A424C124B924C92408000A
:10096200320099019B019D0106309F009E01080003
:1009720080302C0099000230980040309700080027
:1009820080302C009C0002309B0040309A0008000E
:1009920020009F01FF309E009D019110A1240800BC
:1009A200F20024001108F0007008F100951372089B
:1009B2009100141CDA2C110808007108F300700869
:1009C200F200F336F20CF336F20C72082C009800A7
:1009D20070080339F2000530F235FF3E031DED2C9D
:1009E2007235970008007108F3007008F200F336C0
:1009F200F20CF336F20C72082C009B0070080339DB
:100A0200F2000530F235FF3E031D032D72359A00C8
:100A1200080022008C013F3024008C002630210087
:100A22008C00103023008C002100101200308B1B30
:100A32000130F0008B1355303C008F00AA308F003C
:100A42000F102008E0390138A0002108E0390238EF
:100A5200A1003D001408E039033894001008E03981
:100A6200023890003C002208E0390538A2005530D7
:100A72008F00AA308F000F14701C412D8B170800B5
:100A82008B130800AA24F601F701F801F901FA0113
:100A92007908F400F501F435F50DFE307407840091
:100AA2008530753D8500003FF000013FF100DE24F6
:100AB2007A08F400F501F435F50DFE307407840070
:100AC2008530753D8500003FF000013FF100F424C0
:100AD200AB2D0130F4007408F9077908F400F50130
:100AE200F435F50DFE30740784008530753D8500C0
:100AF200003FF000013FF100DE243430F500F13018
:100B0200F400F40B822DF50B822D00327808790265
:100B12000318A72D6A2D0130F9027908F400F501B6
:100B2200F435F50DFE30740784008530753D85007F
:100B3200003FF000013FF100DE243430F500F130D7
:100B4200F400F40BA22DF50BA22D003279087802E5
:100B5200031C8C2D7608D124F4007408F700760863
:100B6200D124F4007408F80077080319872D77035D
:100B72000319D92DAB2D0130F4007408FA077A0855
:100B8200F400F501F435F50DFE307407840085306C
:100B9200753D8500003FF000013FF100F424343040
:100BA200F500F130F400F40BD42DF50BD42D003206
:100BB20078087A020318F92DBC2D0130FA027A085E
:100BC200F400F501F435F50DFE307407840085302C
:100BD200753D8500003FF000013FF100F424343000
:100BE200F500F130F400F40BF42DF50BF42D003286
:100BF2007A0878020318AB2DDE2D0034003400345D
:100C0200003401340034013400340234003402343C
:100C12000034033400340334003404340034043424
:100C2200003404340034053400340534003406340E
:100C320000340634003407340034073400340834F6
:100C420000340834003408340034093400340934E0
:100C520000340A3400340A3400340B3400340B34C8
:100C620000340C3400340C3400340D3400340D34B0
:100C720000340E3400340F3400340F340034103496
:100C8200003411340034113400341234003413347B
:100C92000034133400341434003415340034163460
:100CA2000034163400341734003418340034193444
:100CB20000341A3400341B3400341C3400341D3424
:100CC20000341E3400341F34003420340034213404
:100CD20000342234003423340034243400342534E4
:100CE20000342634003427340034293400342A34C2
:100CF20000342B3400342C3400342E3400342F349E
:100D02000034303400343234003433340034343478
:100D120000343634003437340034393400343A3451
:100D220000343C3400343D3400343F340034413428
:100D320000344234003444340034463400344734FE
:100D42000034493400344B3400344D3400344F34D1
:100D520000345134003453340034553400345734A1
:100D62000034593400345B3400345D3400345F3471
:100D72000034613400346334003465340034683440
:100D820000346A3400346C3400346E34003471340C
:100D920000347334003476340034783400347B34D5
:100DA20000347D340034803400348234003485349D
:100DB2000034883400348A3400348D340034903462
:100DC20000349334003496340034993400349B3424
:100DD20000349E340034A1340034A4340034A834E6
:100DE2000034AB340034AE340034B1340034B434A3
:100DF2000034B8340034BB340034BE340034C2345E
:100E02000034C5340034C9340034CC340034D03416
:100E12000034D3340034D7340034DB340034DE34CD
:100E22000034E2340034E6340034EA340034EE3480
:100E32000034F2340034F6340034FA340034FE3430
:100E4200003402340134063401340A3401340F34DC
:100E5200013413340134173401341C340134203486
:100E6200013424340134293401342E34013432342F
:100E72000134373401343C340134403401344534D4
:100E820001344A3401344F34013454340134593476
:100E920001345E34013463340134683401346D3416
:100EA200013473340134783401347D3401348334B1
:100EB2000134883401348E3401349334013499344A
:100EC20001349E340134A4340134AA340134B034E0
:100ED2000134B6340134BB340134C1340134C73473
:100EE2000134CE340134D4340134DA340134E03400
:100EF2000134E6340134ED340134F3340134FA348C
:100F0200013400340234073402340D340234143410
:100F120002341B34023422340234283402342F3493
:100F22000234363402343D340234443402344C3414
:100F32000234533402345A34023461340234693490
:100F4200023470340234783402347F340234873409
:100F520002348E340234963402349E340234A6347F
:100F62000234AE340234B6340234BE340234C634EF
:100F72000234CE340234D6340234DF340234E7345D
:100F82000234EF340234F8340234003403340934C6
:100F92000334123403341A340334233403342C3428
:100FA2000334353403343E34033447340334503489
:100FB200033459340334633403346C3403347534E6
:100FC20003347F34033488340334923403349C343E
:100FD2000334A5340334AF340334B9340334C33493
:100FE2000334CD340334D7340334E1340334EB34E3
:0E0FF2000334F6340334FF3403342000432D5F
:020000040001F9
:08000E008CFFF3FFFFDFFFFF91
:00000001FF
